S013000046696E616C4472616674312E7372656305
S113000045C0000062C0000060C000005EC0000087
S11300105CC000005AC0000058C0000056C0000078
S113002054C0000052C0000050C000004EC0000088
S11300304CC00000BBC0000048C0000046C0000027
S113004044C0000042C0000040C000003EC00000A8
S11300503CC000003AC0000038C0000036C00000B8
S113006034C0000032C0000030C000002EC00000C8
S11300702CC000002AC0000028C0000026C00000D8
S113008024C0000022C0000020C0000011241FBEB4
S1130090CFEFD0E4DEBFCDBF11E0A0E0B1E0ECECE7
S11300A0F7E200E00BBF02C007900D92A23CB1073B
S11300B0D9F723E0A2ECB1E001C01D92A03BB20746
S11300C0E1F70E94E5110C94E4139ACFCF93DF93E8
S11300D000D000D0CDB7DEB769837A838B839C834D
S11300E089819A81AB81BC81809300019093010145
S11300F0A0930201B093030180910001909101014A
S1130100A0910201B09103018093C3019093C401B3
S1130110A093C501B093C60100000F900F900F90FB
S11301200F90DF91CF910895CF93DF93CDB7DEB7D2
S113013081E890E02BE0FC01208388E890E02DE743
S113014030E0FC01318320838FE690E022E0FC0163
S1130150208384E890E0FC011182108280910001E8
S113016090910101A0910201B09103018093C30118
S11301709093C401A093C501B093C6018FE590E0AC
S11301802FE530E0F90120812068FC012083000084
S1130190DF91CF910895CF93DF93CDB7DEB781E0A0
S11301A08093C2010000DF91CF9108951F920F92B6
S11301B000905F000F92112400905B000F922F9328
S11301C03F934F935F936F937F938F939F93AF93DB
S11301D0BF93EF93FF93CF93DF93CDB7DEB78091B7
S11301E0C3019091C401A091C501B091C6010197CA
S11301F0A109B1098093C3019093C401A093C501DF
S1130200B093C6018091C3019091C401A091C5012E
S1130210B091C601892B8A2B8B2B89F4BCDF80918A
S1130220000190910101A0910201B091030180931A
S1130230C3019093C401A093C501B093C60100000B
S1130240DF91CF91FF91EF91BF91AF919F918F91EA
S11302507F916F915F914F913F912F910F900092F9
S11302605B000F9000925F000F901F901895CF9342
S1130270DF93CDB7DEB781E01AD00000DF91CF91D4
S11302800895CF93DF93CDB7DEB784E690E0ACD08A
S113029088E30DD086E00BD08FE009D081E007D051
S11302A08AE090E0A1D00000DF91CF910895CF9330
S11302B0DF931F92CDB7DEB7898385E290E025E214
S11302C030E0F90120812E7FFC0120838BE290E055
S11302D02981FC01208385E290E025E230E0F901E8
S11302E020812260FC012083000085E290E025E269
S11302F030E0F90120812D7FFC01208382E090E031
S113030073D000000F90DF91CF910895CF93DF93C6
S11303101F92CDB7DEB7898385E290E025E230E015
S1130320F90120812160FC0120838BE290E0298186
S1130330FC01208385E290E025E230E0F901208190
S11303402260FC012083000085E290E025E230E099
S1130350F90120812D7FFC01208381E090E044D0CD
S113036000000F90DF91CF910895CF93DF9300D0D9
S113037000D0CDB7DEB78A837C836B8378DF8A8134
S113038089830FC0898191E0980F998318D08B815C
S11303909C819C012F5F3F4F3C832B83FC01808118
S11303A0B5DF8B819C81FC018081882359F7000093
S11303B00F900F900F900F90DF91CF910895CF93EE
S11303C0DF931F92CDB7DEB789838981813120F411
S11303D0898181586CDF03C08981815568DF000001
S11303E00F90DF91CF910895CF93DF9300D000D089
S11303F000D0CDB7DEB79E838D831A82198213C0D5
S11304001C821B8206C000008B819C8101969C8308
S11304108B838B819C8187309340ACF389819A8153
S113042001969A83898329813A818D819E81281737
S1130430390734F3000026960FB6F894DEBF0FBEDA
S1130440CDBFDF91CF910895CF93DF93CDB7DEB7C2
S113045084E290E024E230E0F9012081206BFC0189
S1130460208385E290E025E230E0F90120812F74B9
S1130470FC0120830000DF91CF910895CF93DF9397
S1130480CDB7DEB78CE490E020E5FC0120830000CA
S1130490DF91CF910895CF93DF931F92CDB7DEB74D
S11304A089838EE490E02981FC01208300008DE49F
S11304B090E0FC0180818823D4F700000F90DF9145
S11304C0CF910895CF93DF9300D0CDB7DEB79A8351
S11304D089838091C801DFDF8091C701DCDF85E279
S11304E090E025E230E0F90120812061FC012083C5
S11304F085E290E025E230E0F90120812F7EFC01C5
S1130500208389819A810F900F90DF91CF91089574
S1130510CF93DF9300D0CDB7DEB79A83898380E091
S1130520BADF80E0B8DF85E290E025E230E0F9014F
S113053020812061FC01208385E290E025E230E007
S1130540F90120812F7EFC01208389819A810F90FB
S11305500F90DF91CF910895CF93DF93CDB7DEB79E
S11305608091CC029091CD028230910551F083307C
S1130570910549F0892B49F01092CD021092CC02DA
S113058005C0000003C0000001C000008091CC023F
S11305909091CD02892B09F054C08091C9018093B8
S11305A0C701809104018093C80120910B0130910F
S11305B00C018091090190910A012817390750F123
S11305C08091C701882321F08091D101813041F4C9
S11305D08091C70181608093C7011092D10105C049
S11305E08091C701880F8093C7018091C7018093D0
S11305F0C9018091C90188236CF480E290E0FC0178
S11306008081882F90E080729927892B19F481E0EA
S11306108093E0018091C70188236CF480E290E02C
S1130620FC018081882F90E080729927892B19F42E
S113063081E08093E0018091CC029091CD0242DF71
S113064000000000DF91CF910895CF93DF93CDB7E1
S1130650DEB78091CC029091CD02892B29F01092C3
S1130660CD021092CC0201C000008091CC02909186
S1130670CD02892B09F054C08091CA018093C7012F
S1130680809105018093C80120910B0130910C01E8
S11306908091090190910A012817390750F180913E
S11306A0C701882321F08091D201813041F48091E7
S11306B0C70181608093C7011092D20105C0809167
S11306C0C701880F8093C7018091C7018093CA0135
S11306D08091CA0188236CF480E290E0FC0180815F
S11306E0882F90E080749927892B19F481E08093F6
S11306F0E1018091C70188236CF480E290E0FC0161
S11307008081882F90E080749927892B19F481E0E7
S11307108093E1018091CC029091CD02D3DE000060
S11307200000DF91CF910895CF93DF93CDB7DEB76B
S11307308091CB018093C701809106018093C80109
S11307408091CC029091CD02892B29F01092CD0298
S11307501092CC0201C000008091CC029091CD0295
S1130760892B09F044C020910B0130910C01809138
S1130770090190910A012817390730F18091C701C6
S1130780882321F08091D301813041F48091C70105
S113079081608093C7011092D30105C08091C70185
S11307A0880F8093C7018091C7018093CB0180910A
S11307B0CB0188234CF480E290E0FC018081882303
S11307C01CF081E08093E2018091C70188234CF4FE
S11307D080E290E0FC01808188231CF081E080931A
S11307E0E2018091CC029091CD026CDE0000000009
S11307F0DF91CF910895CF93DF93CDB7DEB780918A
S1130800CC018093C701809107018093C801809136
S1130810CC029091CD02892B29F01092CD02109236
S1130820CC0201C000008091CC029091CD02892BB2
S113083009F04CC020910B0130910C018091090109
S113084090910A012817390750F18091C701882334
S113085021F08091D401813041F48091C7018160FD
S11308608093C7011092D40105C08091C701880FFD
S11308708093C7018091C7018093CC018091C70107
S113088088236CF486E290E0FC018081882F90E05C
S113089080749927892B19F481E08093E301809176
S11308A0CC0188236CF486E290E0FC018081882FDF
S11308B090E080749927892B19F481E08093E301F7
S11308C08091CC029091CD02FDDD00000000DF910B
S11308D0CF910895CF93DF93CDB7DEB78091CD014B
S11308E08093C701809108018093C8018091CC0254
S11308F09091CD02892B29F01092CD021092CC0256
S113090001C000008091CC029091CD02892B09F0A6
S113091044C020910B0130910C0180910901909108
S11309200A012817390730F18091C701882321F083
S11309308091D501813041F48091C7018160809319
S1130940C7011092D50105C08091C701880F80931B
S1130950C7018091C7018093CD018091CD01882387
S11309604CF486E290E0FC01808188231CF081E055
S11309708093E4018091C70188234CF486E290E0DF
S1130980FC01808188231CF081E08093E401809144
S1130990CC029091CD0296DD00000000DF91CF9152
S11309A00895CF93DF93CDB7DEB78091E001813016
S11309B059F48091E5019091E60101969093E60146
S11309C08093E5011092E0018091E101813059F4B6
S11309D08091E5019091E60101969093E601809360
S11309E0E5011092E1018091E201813059F4809196
S11309F0E5019091E60101969093E6018093E5016B
S1130A001092E2018091E301813059F48091E50173
S1130A109091E60101969093E6018093E50110928E
S1130A20E3018091E401813059F48091E5019091D2
S1130A30E60101969093E6018093E5011092E401AA
S1130A400000DF91CF9108950F931F93CF93DF930D
S1130A50CDB7DEB7CE58D1090FB6F894DEBF0FBEBE
S1130A60CDBF8091CC029091CD02009739F00197CF
S1130A7039F01092CD021092CC0203C0000001C0E4
S1130A8000008091CC029091CD02009731F0019743
S1130A9011F40C944D0D0C948B0D80910B019091DD
S1130AA00C01019690930C0180930B011A82198218
S1130AB0E3C789819A8181539D4FFC018081282F4E
S1130AC030E08091CE019091CF012817390709F0C9
S1130AD03BC389819A8187519E4FFC01808181307B
S1130AE009F073C039DD80E090E0A0E8BFE38FA394
S1130AF098A7A9A7BAA720E030E04AE753E46FA17A
S1130B0078A589A59AA50E942413DC01CB018BA7A3
S1130B109CA7ADA7BEA720E030E040E85FE36BA54B
S1130B207CA58DA59EA50E94A31288232CF481E0A8
S1130B3090E098AB8FA73FC020E03FEF4FE757E42A
S1130B406BA57CA58DA59EA50E94201318164CF5B7
S1130B5020E030E040E251E46FA178A589A59AA590
S1130B600E942413DC01CB01BC01CD010E94A71219
S1130B70DC01CB0198AB8FA70FC089E190E09AAB61
S1130B8089AB89A99AA90197F1F79AAB89AB8FA58B
S1130B9098A9019798AB8FA78FA598A9892B69F776
S1130BA014C06BA57CA58DA59EA50E94A712DC018F
S1130BB0CB0198AB8FA78FA598A99CAB8BAB8BA9C6
S1130BC09CA90197F1F79CAB8BAB89819A818751E2
S1130BD09E4FFC018081823009F073C036DD80E0D5
S1130BE090E0A0E8BFE38B839C83AD83BE8320E0C9
S1130BF030E04AE753E46B817C818D819E810E94C1
S1130C002413DC01CB018DAB9EABAFABB8AF20E0BE
S1130C1030E040E85FE36DA97EA98FA998AD0E94FA
S1130C20A31288232CF481E090E09AAF89AF3FC0EF
S1130C3020E03FEF4FE757E46DA97EA98FA998AD57
S1130C400E94201318164CF520E030E040E251E4F5
S1130C506B817C818D819E810E942413DC01CB01F8
S1130C60BC01CD010E94A712DC01CB019AAF89AF70
S1130C700FC089E190E09CAF8BAF8BAD9CAD019729
S1130C80F1F79CAF8BAF89AD9AAD01979AAF89AF5D
S1130C9089AD9AAD892B69F714C06DA97EA98FA976
S1130CA098AD0E94A712DC01CB019AAF89AF89AD40
S1130CB09AAD9EAF8DAF8DAD9EAD0197F1F79EAF0E
S1130CC08DAF89819A8187519E4FFC018081833049
S1130CD009F0B6C029DD80E090E0A0E8BFE38F838F
S1130CE09887A987BA878E01015C1F4F20E030E006
S1130CF04AE753E46F81788589859A850E94241395
S1130D00DC01CB01F80180839183A283B383CE01FC
S1130D10CF9620E030E040E85FE3FC016081718120
S1130D20828193810E94A31288234CF4CE018D5BAF
S1130D309F4F21E030E0FC013183208367C0CE0166
S1130D40CF9620E03FEF4FE757E4FC0160817181CB
S1130D50828193810E94201318160CF046C020E073
S1130D6030E040E251E46F81788589859A850E945C
S1130D702413DC01CB018E010D5B1F4FBC01CD019F
S1130D800E94A712DC01CB01F8019183808324C067
S1130D90CE018B5B9F4F29E130E0FC01318320833E
S1130DA0CE018B5B9F4FFC01808191810197F1F70C
S1130DB09E012B5B3F4FF90191838083CE018D5BB4
S1130DC09F4F9E012D5B3F4FF901208131812150BE
S1130DD03109FC0131832083CE018D5B9F4FFC01DF
S1130DE080819181892BA1F62BC08E010D5B1F4F51
S1130DF0CE01CF96FC0160817181828193810E9432
S1130E00A712DC01CB01F80191838083CE01895BB9
S1130E109F4F9E012D5B3F4FF90120813181FC01E1
S1130E2031832083CE01895B9F4FFC0180819181B6
S1130E300197F1F79E01295B3F4FF901918380836C
S1130E4089819A8187519E4FFC018081843009F009
S1130E50B9C0D1DC80E090E0A0E8BFE38B879C8739
S1130E60AD87BE878E01075B1F4F20E030E04AE765
S1130E7053E46B857C858D859E850E942413DC015B
S1130E80CB01F80180839183A283B383CE01875B76
S1130E909F4F20E030E040E85FE3FC016081718116
S1130EA0828193810E94A31288234CF4CE01835B38
S1130EB09F4F21E030E0FC013183208369C0CE01E3
S1130EC0875B9F4F20E03FEF4FE757E4FC016081D1
S1130ED07181828193810E94201318160CF046C000
S1130EE020E030E040E251E46B857C858D859E8571
S1130EF00E942413DC01CB018E01035B1F4FBC0154
S1130F00CD010E94A712DC01CB01F80191838083FB
S1130F1024C0CE01815B9F4F29E130E0FC01318385
S1130F202083CE01815B9F4FFC01808191810197D9
S1130F30F1F79E01215B3F4FF90191838083CE013C
S1130F40835B9F4F9E01235B3F4FF90120813181D9
S1130F5021503109FC0131832083CE01835B9F4FF3
S1130F60FC0180819181892BA1F62CC08E01035B49
S1130F701F4FCE01875B9F4FFC016081718182818D
S1130F8093810E94A712DC01CB01F8019183808335
S1130F90CE018F5A9F4F9E01235B3F4FF901208161
S1130FA03181FC0131832083CE018F5A9F4FFC0194
S1130FB0808191810197F1F79E012F5A3F4FF901EA
S1130FC09183808389819A8187519E4FFC0180811E
S1130FD0853009F0B9C07EDC80E090E0A0E8BFE392
S1130FE08F87988BA98BBA8B8E010D5A1F4F20E0E7
S1130FF030E04AE753E46F85788989899A890E94A9
S11310002413DC01CB01F80180839183A283B38391
S1131010CE018D5A9F4F20E030E040E85FE3FC01B1
S113102060817181828193810E94A31288234CF490
S1131030CE01895A9F4F21E030E0FC0131832083A7
S113104069C0CE018D5A9F4F20E03FEF4FE757E430
S1131050FC0160817181828193810E9420131816A2
S11310600CF046C020E030E040E251E46F8578891E
S113107089899A890E942413DC01CB018E01095AC3
S11310801F4FBC01CD010E94A712DC01CB01F80166
S11310909183808324C0CE01875A9F4F29E130E099
S11310A0FC0131832083CE01875A9F4FFC0180814C
S11310B091810197F1F79E01275A3F4FF9019183DE
S11310C08083CE01895A9F4F9E01295A3F4FF901CF
S11310D02081318121503109FC0131832083CE01EB
S11310E0895A9F4FFC0180819181892BA1F62CC0E4
S11310F08E01095A1F4FCE018D5A9F4FFC0160810A
S11311007181828193810E94A712DC01CB01F801D5
S113111091838083CE01855A9F4F9E01295A3F4F68
S1131120F90120813181FC0131832083CE01855A6C
S11311309F4FFC01808191810197F1F79E01255A0F
S11311403F4FF9019183808389819A8181539D4F17
S1131150FC018081282F30E08091CE019091CF0155
S113116001972817390709F474C089819A8181533A
S11311709D4FFC018081282F30E08091CE01909119
S1131180CF0102972817390709F463C089819A812E
S113119081539D4FFC018081282F30E08091CE0146
S11311A09091CF0103972817390709F452C0898118
S11311B09A8181539D4FFC018081282F30E08091DA
S11311C0CE019091CF0104972817390709F441C043
S11311D089819A8181539D4FFC018081282F30E0C1
S11311E08091CE019091CF0105972817390789F195
S11311F089819A8181539D4FFC018081282F30E0A1
S11312008091CE019091CF0106972817390709F1F3
S113121089819A8181539D4FFC018081282F30E080
S11312208091CE019091CF0107972817390789F053
S113123089819A8181539D4FFC018081282F30E060
S11312408091CE019091CF0108972817390709F0B2
S11312500EC489819A8187519E4FFC01808181301F
S113126009F0CAC08091D101813011F41092D101EA
S11312708091D601813009F4B9C06ED980E090E044
S1131280A0E8BFE38B8B9C8BAD8BBE8B8E01035A86
S11312901F4F20E030E04AE753E46B897C898D8955
S11312A09E890E942413DC01CB01F8018083918381
S11312B0A283B383CE01835A9F4F20E030E040E8FD
S11312C05FE3FC0160817181828193810E94A3129A
S11312D088234CF4CE018F599F4F21E030E0FC016C
S11312E03183208369C0CE01835A9F4F20E03FEFB2
S11312F04FE757E4FC0160817181828193810E94F0
S1131300201318160CF046C020E030E040E251E40F
S11313106B897C898D899E890E942413DC01CB0111
S11313208E010F591F4FBC01CD010E94A712DC0191
S1131330CB01F8019183808324C0CE018D599F4F46
S113134029E130E0FC0131832083CE018D599F4F88
S1131350FC01808191810197F1F79E012D593F4F46
S1131360F90191838083CE018F599F4F9E012F599C
S11313703F4FF9012081318121503109FC01318332
S11313802083CE018F599F4FFC0180819181892B4D
S1131390A1F62CC08E010F591F4FCE01835A9F4FC7
S11313A0FC0160817181828193810E94A712DC011A
S11313B0CB01F80191838083CE018B599F4F9E010D
S11313C02F593F4FF90120813181FC013183208362
S11313D0CE018B599F4FFC01808191810197F1F7D8
S11313E09E012B593F4FF9019183808381E08093C3
S11313F0D10181E08093D60189819A8187519E4FE2
S1131400FC018081823009F0C9C08091D201813011
S113141011F41092D2018091D701813009F4B8C03F
S113142014D980E090E0A0E8BFE38F8B988FA98F58
S1131430BA8F8E0109591F4F20E030E04AE753E488
S11314406F89788D898D9A8D0E942413DC01CB01DC
S1131450F80180839183A283B383CE0189599F4F7E
S113146020E030E040E85FE3FC016081718182812B
S113147093810E94A31288234CF4CE0185599F4F77
S113148021E030E0FC013183208368C0CE0189591A
S11314909F4F20E03FEF4FE757E4FC0160817181EB
S11314A0828193810E94201318160CF046C020E01C
S11314B030E040E251E46F89788D898D9A8D0E94E5
S11314C02413DC01CB018E0105591F4FBC01CD0152
S11314D00E94A712DC01CB01F8019183808324C010
S11314E0CE0183599F4F29E130E0FC0131832083F1
S11314F0CE0183599F4FFC01808191810197F1F7BF
S11315009E0123593F4FF90191838083CE01855970
S11315109F4F9E0125593F4FF90120813181215070
S11315203109FC0131832083CE0185599F4FFC0191
S113153080819181892BA1F62BC08E0105591F4F03
S1131540CE0189599F4FFC01608171818281938111
S1131550FED7DC01CB01F80191838083CE01815950
S11315609F4F9E0125593F4FF90120813181FC0194
S113157031832083CE0181599F4FFC018081918169
S11315800197F1F79E0121593F4FF901918380831F
S113159081E08093D20181E08093D70189819A818F
S11315A087519E4FFC018081833009F0C5C0809132
S11315B0D301813011F41092D3018091D80181308C
S11315C009F4B4C0B1D880E090E0A0E8BFE38B8F09
S11315D09C8FAD8FBE8F8E010F581F4F20E030E0DF
S11315E04AE753E46B8D7C8D8D8D9E8D0E94241370
S11315F0DC01CB01F80180839183A283B383CE0104
S11316008F589F4F20E030E040E85FE3FC016081A9
S113161071818281938197D788234CF4CE018B58B2
S11316209F4F21E030E0FC013183208365C0CE016F
S11316308F589F4F20E03FEF4FE757E4FC01608154
S1131640718182819381FCD718160CF044C020E08C
S113165030E040E251E46B8D7C8D8D8D9E8DF4D70E
S1131660DC01CB018E010B581F4FBC01CD016FD79C
S1131670DC01CB01F8019183808324C0CE01895819
S11316809F4F29E130E0FC0131832083CE0189584A
S11316909F4FFC01808191810197F1F79E012958A8
S11316A03F4FF90191838083CE018B589F4F9E0158
S11316B02B583F4FF9012081318121503109FC0120
S11316C031832083CE018B589F4FFC01808191810F
S11316D0892BA1F62BC08E010B581F4FCE018F58BA
S11316E09F4FFC01608171818281938130D7DC013D
S11316F0CB01F80191838083CE0187589F4F9E01CF
S11317002B583F4FF90120813181FC013183208323
S1131710CE0187589F4FFC01808191810197F1F799
S11317209E0127583F4FF9019183808381E0809384
S1131730D30181E08093D80189819A8187519E4F9A
S1131740FC018081843009F0C4C08091D4018130CF
S113175011F41092D4018091D901813009F4B3C0FD
S11317604AD880E090E0A0E8BFE38F8F98A3A9A3B4
S1131770BAA38E0105581F4F20E030E04AE753E436
S11317806F8D78A189A19AA15FD7DC01CB01F80103
S113179080839183A283B383CE0185589F4F20E039
S11317A030E040E85FE3FC016081718182819381D4
S11317B0CAD688234CF4CE0181589F4F21E030E0F3
S11317C0FC013183208365C0CE0185589F4F20E002
S11317D03FEF4FE757E4FC0160817181828193817F
S11317E02FD718160CF044C020E030E040E251E45A
S11317F06F8D78A189A19AA127D7DC01CB018E0135
S113180001581F4FBC01CD01A2D6DC01CB01F80168
S11318109183808324C0CE018F579F4F29E130E00C
S1131820FC0131832083CE018F579F4FFC018081BF
S113183091810197F1F79E012F573F4FF901918351
S11318408083CE0181589F4F9E0121583F4FF9015B
S11318502081318121503109FC0131832083CE0163
S113186081589F4FFC0180819181892BA1F62BC067
S11318708E0101581F4FCE0185589F4FFC01608196
S113188071818281938163D6DC01CB01F80191835C
S11318908083CE018D579F4F9E0121583F4FF90100
S11318A020813181FC0131832083CE018D579F4FEC
S11318B0FC01808191810197F1F79E012D573F4FE3
S11318C0F9019183808381E08093D40181E0809346
S11318D0D90189819A8187519E4FFC01808185308D
S11318E009F0C5C08091D501813011F41092D50161
S11318F08091DA01813009F4B4C00E946A0480E066
S113190090E0A0E8BFE38BA39CA3ADA3BEA38E018C
S11319100B571F4F20E030E04AE753E46BA17CA152
S11319208DA19EA191D6DC01CB01F8018083918326
S1131930A283B383CE018B579F4F20E030E040E871
S11319405FE3FC016081718182819381FCD58823EE
S11319504CF4CE0187579F4F21E030E0FC013183E6
S1131960208365C0CE018B579F4F20E03FEF4FE7A8
S113197057E4FC01608171818281938161D61816DC
S11319800CF044C020E030E040E251E46BA17CA1C3
S11319908DA19EA159D6DC01CB018E0107571F4FA3
S11319A0BC01CD01D4D5DC01CB01F8019183808346
S11319B024C0CE0185579F4F29E130E0FC013183DB
S11319C02083CE0185579F4FFC018081918101972F
S11319D0F1F79E0125573F4FF90191838083CE0192
S11319E087579F4F9E0127573F4FF901208131812F
S11319F021503109FC0131832083CE0187579F4F49
S1131A00FC0180819181892BA1F62BC08E0107579F
S1131A101F4FCE018B579F4FFC01608171818281E2
S1131A20938195D5DC01CB01F80191838083CE01AC
S1131A3083579F4F9E0127573F4FF90120813181E2
S1131A40FC0131832083CE0183579F4FFC018081A9
S1131A5091810197F1F79E0123573F4FF90191833B
S1131A60808381E08093D50181E08093DA018981CC
S1131A709A8101969A83898380910E01282F30E000
S1131A8089819A81821793070CF413C881E090E04E
S1131A909093CD028093CC023EC01092D601109256
S1131AA0D7011092D8011092D9011092DA01209135
S1131AB00B0130910C018091090190910A012817C2
S1131AC0390720F110920C0110920B018091090149
S1131AD090910A010A9790930A01809309018091D9
S1131AE0090190910A014A9730F489E190E09093BA
S1131AF00A01809309018091CE019091CF01019652
S1131B009093CF018093CE010E94D1041092CD0214
S1131B101092CC0200000000C257DF4F0FB6F894B9
S1131B20DEBF0FBECDBFDF91CF911F910F910895FE
S1131B30CF93DF93CDB7DEB78091CC029091CD02E5
S1131B400E94880280910F01813061F40E94370164
S1131B5060E171E081E00E94B50180910F018F5F27
S1131B6080930F0188EC90E00E94F40180910F01B2
S1131B70823009F069C086E290E0FC0180818095A2
S1131B80807C8093CE0280E290E0FC01808180958D
S1131B90807E8093CB020E94370160E371E081E094
S1131BA00E94B50110C086E290E0FC01808180951E
S1131BB0807C8093CE0280E290E0FC01808180955D
S1131BC0807E8093CB028091CB02803221F0809181
S1131BD0CB02803441F78091CB02803259F40E94C9
S1131BE0370161E571E081E00E94B50181E08093F5
S1131BF0D0010EC08091CB02803451F40E94370191
S1131C0061E671E081E00E94B50182E08093D00139
S1131C1084E690E00E94F4010E94370161E771E0DC
S1131C2081E00E94B50188EC90E00E94F4010E94DA
S1131C3037016CE771E081E00E94B50188EC90E027
S1131C400E94F4010E9437010000DF91CF910895B2
S1131C500F931F93CF93DF9300D000D000D0CDB764
S1131C60DEB78091CC029091CD020E9488028EE270
S1131C7090E084D59093E8018093E7011A82198259
S1131C801C821B821E821D822091E7013091E80193
S1131C908091E5019091E6012817390708F08AC080
S1131CA00E94370167E871E081E00E94B50188EC89
S1131CB090E00E94F40167EA71E081E00E94B501BE
S1131CC08091E5019091E6018436910580F0809140
S1131CD0E5019091E60196958795969587959C01E7
S1131CE0ABE7B4E13CD5969587959A838983809137
S1131CF0E5019091E6010A97D8F089819A814CE92F
S1131D008C0140039001419F300D11248091E50125
S1131D109091E601820F931F9C01ADECBCEC1FD5A2
S1131D209695879596958795969587959C838B83AD
S1131D308091E5019091E601892BE9F089819A81EE
S1131D404CE9BC0146039001479F300D11248B815F
S1131D509C8166EF8C016003A001619F500D1124EA
S1131D60CA01280F391F8091E5019091E601820F85
S1131D70931F9E838D8389819A811816190624F4F2
S1131D808981805D0E9486018B819C8118161906C9
S1131D9024F48B81805D0E9486018D81805D0E9488
S1131DA086018091E5019091E601BC018EE290E00C
S1131DB0EAD4F2C00E94370164EB71E081E00E9432
S1131DC0B5018091E5019091E6018436910580F09A
S1131DD08091E5019091E601969587959695879572
S1131DE09C01ABE7B4E1BBD4969587959A8389832C
S1131DF08091E5019091E6010A97D8F089819A8152
S1131E004CE9BC0146039001479F300D1124809199
S1131E10E5019091E601820F931F9C01ADECBCECAF
S1131E209ED49695879596958795969587959C8348
S1131E308B838091E5019091E601892BE9F08981FA
S1131E409A814CE98C0140039001419F300D11248B
S1131E508B819C8166EF8C016003A001619F500D12
S1131E601124CA01280F391F8091E5019091E601E0
S1131E70820F931F9E838D8389819A811816190678
S1131E8024F48981805D0E9486018B819C811816CF
S1131E90190624F48B81805D0E9486018D81805D0A
S1131EA00E94860184EF91E00E94F40167EA71E0E8
S1131EB081E00E94B5018091E7019091E8018436A8
S1131EC0910580F08091E7019091E80196958795BE
S1131ED0969587959C01ABE7B4E141D49695879597
S1131EE09A8389838091E7019091E8010A97D8F059
S1131EF089819A814CE9BC0146039001479F300DCA
S1131F0011248091E7019091E801820F931F9C01B5
S1131F10ADECBCEC24D496958795969587959695CB
S1131F2087959C838B838091E7019091E801892BAD
S1131F30E9F089819A814CE98C0140039001419F29
S1131F40300D11248B819C8166EF8C016003A0010C
S1131F50619F500D1124CA01280F391F8091E70198
S1131F609091E801820F931F9E838D8389819A81CA
S1131F701816190624F48981805D0E9486018B81DC
S1131F809C811816190624F48B81805D0E948601B9
S1131F908D81805D0E948601000026960FB6F8941C
S1131FA0DEBF0FBECDBFDF91CF911F910F9108957A
S1131FB0CF93DF93CDB7DEB781E08093E90182E070
S1131FC08093EA0183E08093EB0184E08093EC0149
S1131FD085E08093ED0183E08093EE0184E08093BB
S1131FE0EF0184E08093F00181E08093F10181E0CE
S1131FF08093F20182E08093F30185E08093F40101
S113200083E08093F50181E08093F60184E080937E
S1132010F70181E08093F80182E08093F90183E085
S11320208093FA0184E08093FB0185E08093FC01B6
S113203081E08093FD0181E08093CF0282E0809370
S1132040D00283E08093D10284E08093D20285E0C1
S11320508093D30288E08093D4028AE08093D502EF
S11320608BE08093D6028CE08093D7028DE080933E
S1132070D80280E18093D90280E18093DA0281E181
S11320808093DB0283E18093DC0284E18093DD02B0
S113209085E18093DE028AE18093DF028DE1809303
S11320A0E0028EE18093E10282E28093E20283E225
S11320B08093E30285E180930E010000DF91CF91CC
S11320C00895CF93DF93CDB7DEB780910E01803EA4
S11320D008F0EDC08091CE019091CF01839708F074
S11320E0E6C080E290E0FC018081882F90E081705E
S11320F09927892B21F481E08093DB0120C0809112
S1132100DB018130E1F480910E01882F90E0209171
S1132110CE013091CF0181539D4FFC0120838091EA
S11321200E01882F90E087519E4F21E0FC0120830F
S113213080910E018F5F80930E011092DB0180E28B
S113214090E0FC018081882F90E082709927892B90
S113215021F481E08093DC0120C08091DC01813096
S1132160E1F480910E01882F90E02091CE0130910E
S1132170CF0181539D4FFC01208380910E01882F54
S113218090E087519E4F22E0FC01208380910E0154
S11321908F5F80930E011092DC0180E290E0FC01DD
S11321A08081882F90E084709927892B21F481E025
S11321B08093DD0120C08091DD018130E1F48091C4
S11321C00E01882F90E02091CE013091CF018153F0
S11321D09D4FFC01208380910E01882F90E0875150
S11321E09E4F23E0FC01208380910E018F5F80933A
S11321F00E011092DD0180E290E0FC018081882FC5
S113220090E088709927892B21F481E08093DE0186
S113221020C08091DE018130E1F480910E01882F8D
S113222090E02091CE013091CF0181539D4FFC016C
S1132230208380910E01882F90E087519E4F24E0E7
S1132240FC01208380910E018F5F80930E01109218
S1132250DE0180E290E0FC018081882F90E08071B3
S11322609927892B21F481E08093DF0120C080919C
S1132270DF018130E1F480910E01882F90E02091FC
S1132280CE013091CF0181539D4FFC012083809179
S11322900E01882F90E087519E4F25E0FC0120839A
S11322A080910E018F5F80930E011092DF01000078
S11322B0DF91CF910895CF93DF93CDB7DEB710921E
S11322C00D0181E080930F010E9424020E943E02CE
S11322D061E070E080E090E00E9466000E9494005B
S11322E00E9441011092CD021092CC0221DC80E2C6
S11322F090E0FC01808180958093CB0286E290E09F
S1132300FC0180818095837C8093CE0285E290E0FD
S113231025E230E0F90120812F7EFC0120838091A9
S1132320CE02882F90E081709927892B19F081E0E3
S113233080930D0180910D01813009F441C0809199
S1132340D0018130C1F434DE8091CE019091CF016F
S11323508D9718F40E9424050EC07ADC86E290E082
S1132360FC018081882F90E081709927892BB1F737
S113237081E080930D018091D0018230C9F4809175
S1132380CE019091CF018D9720F49BDE0E9424050D
S11323900FC05EDC86E290E0FC018081882F90E033
S11323A081709927892BB1F781E080930D0100009A
S11323B000008091C2018823E1F31092C20197CFFB
S11323C000000000DF91CF910895CF93DF931F9217
S11323D0CDB7DEB781E290E0FC01108282E290E0AA
S11323E02FEFFC01208387E290E022E0FC012083B0
S11323F088E290E021ECFC01208384E290E023E079
S1132400FC01208385E290E0FC0110828AE290E0E6
S11324102FEFFC0120838BE290E0FC01108288C046
S11324208EE290E0ABD19093E8018093E701809134
S1132430E7019091E8018130924028F060E070E07B
S11324408EE290E0A0D11092C7011092C8011092C0
S1132450C9018EEF809304011092CA018DEF80931D
S113246005011092CB018BEF809306011092CC01F1
S113247087EF809307011092CD018FEE80930801BE
S11324801092CF011092CE0188EC90E090930A0153
S11324908093090188EC90E090930C0180930B01E8
S11324A01092D0011092D1011092D2011092D30156
S11324B01092D4011092D5011092D6011092D70136
S11324C01092D8011092D9011092DA011092E6010B
S11324D01092E5011092DB011092DC011092DD01F3
S11324E01092DE011092DF011092E0011092E101DE
S11324F01092E2011092E3011092E40185E08093CE
S11325000E01198211C08981882F90E081539D4F5B
S1132510FC0110828981882F90E087519E4FFC0135
S1132520108289818F5F89838981813E60F3C3DE54
S113253080910D01813009F473CF80E090E00F9019
S1132540DF91CF9108952FD008F481E0089557D0FA
S113255088F09F5790F0B92F9927B751A0F0D1F088
S1132560660F771F881F991F1AF0BA95C9F712C012
S1132570B13081F05ED0B1E008955BC0672F782F51
S11325808827B85F39F0B93FCCF38695779567957E
S1132590B395D9F73EF490958095709561957F4FEA
S11325A08F4F9F4F0895990F0008550FAA0BE0E82D
S11325B0FEEF16161706E807F907C0F01216130601
S11325C0E407F50798F0621B730B840B950B39F441
S11325D00A2661F0232B242B252B21F408950A26A7
S11325E009F4A140A6958FEF811D811D089557FD23
S11325F09058440F551F59F05F3F71F04795880F6D
S113260097FB991F61F09F3F79F087950895121603
S113261013061406551FF2CF4695F1DF08C01616AF
S113262017061806991FF1CF869571056105089460
S11326300895E894BB2766277727CB0197F9089577
S1132640B2DF08F48FEF08950BD078C069D028F07A
S11326506ED018F0952309F05AC05FC01124EACF58
S1132660C6DFA0F3959FD1F3950F50E0551F629FED
S1132670F001729FBB27F00DB11D639FAA27F00DD7
S1132680B11DAA1F649F6627B00DA11D661F829FFE
S11326902227B00DA11D621F739FB00DA11D621FE3
S11326A0839FA00D611D221F749F3327A00D611D00
S11326B0231F849F600D211D822F762F6A2F1124E2
S11326C09F5750408AF0E1F088234AF0EE0FFF1F35
S11326D0BB1F661F771F881F91505040A9F79E3F6C
S11326E0510570F014C0A6CF5F3FECF3983EDCF3C5
S11326F0869577956795B795F795E7959F5FC1F7A9
S1132700FE2B880F911D9695879597F9089597F953
S11327109F6780E870E060E008959FEF80EC089583
S113272000240A94161617061806090608950024AC
S11327300A9412161306140605060895092E039426
S1132740000C11F4882352F0BB0F40F4BF2B11F49A
S113275060FF04C06F5F7F4F8F4F9F4F0895A29F0C
S1132760B001B39FC001A39F700D811D1124911D61
S1132770B29F700D811D1124911D0895A8E1B0E050
S113278042E050E005C012D0272F11C0DC01CB017C
S1132790FC01F999FECF06C0F2BDE1BDF89A31966D
S11327A000B40D9241505040B8F70895262FF9997E
S11327B0FECF1FBA92BD81BD20BD0FB6F894FA9A20
S10F27C0F99A0FBE01960895F894FFCF1B
S11327CC01000000FEFDFBF7EFC800C80001050185
S11327DC20202057656C636F6D6520746F2020205A
S11327EC204B6579626F617264204865726F2100B9
S11327FC20576F756C6420796F75206C696B65203C
S113280C746F20706C61792031206F722032503FCC
S113281C00203120506C61796572204D6F64652104
S113282C00203220506C61796572204D6F646521F3
S113283C00202020202052454144590020202020F3
S113284C20535441525400436F6E67726174756C1B
S113285C6174696F6E7321204E65772048696768CF
S113286C2053636F726500486967682073636F72E5
S113287C653A2000596F75722073636F72653A2044
S105288C000046
S9030000FC
